{
  "transactions": [
    {
      "hash": "0xa821d169f5428557b603f965dd42bfe1daa7ef5c6dd88b67955e3fa1a8220be8",
      "transactionType": "CALL",
      "contractName": null,
      "contractAddress": "0x4e6ae7306e418d241a5b608f9e3a68aa49acb3ac",
      "function": "claim(address,uint256,bytes32[],uint8,bytes32,bytes32)",
      "arguments": [
        "0x9fDBBe3bB33882c4289189BC301017078430a934",
        "25000000000000000000",
        "[0xd333253c1fca73d001c7ae7dd4aa0ac2b44f2edf384421a3d4337edc424447c3, 0x0fb85f7b6df160de3a55fbbc3757e1166f70d574c0b5520e22040ad2b88d7a5d]",
        "27",
        "0xc2b4fa119d0203fa708cf39a995a2fe8b22d4b2009806d6ab77202e1756bf4a6",
        "0x7379558237b42945ce510466f829fb6417df5730a937d7114084df69d0f168a4"
      ],
      "transaction": {
        "from": "0x9fdbbe3bb33882c4289189bc301017078430a934",
        "to": "0x4e6ae7306e418d241a5b608f9e3a68aa49acb3ac",
        "gas": "0x1e320",
        "value": "0x0",
        "input": "0x4497a1690000000000000000000000009fdbbe3bb33882c4289189bc301017078430a9340000000000000000000000000000000000000000000000015af1d78b58c4000000000000000000000000000000000000000000000000000000000000000000c0000000000000000000000000000000000000000000000000000000000000001bc2b4fa119d0203fa708cf39a995a2fe8b22d4b2009806d6ab77202e1756bf4a67379558237b42945ce510466f829fb6417df5730a937d7114084df69d0f168a40000000000000000000000000000000000000000000000000000000000000002d333253c1fca73d001c7ae7dd4aa0ac2b44f2edf384421a3d4337edc424447c30fb85f7b6df160de3a55fbbc3757e1166f70d574c0b5520e22040ad2b88d7a5d",
        "nonce": "0x83",
        "chainId": "0xaa36a7"
      },
      "additionalContracts": [],
      "isFixedGasLimit": false
    }
  ],
  "receipts": [
    {
      "status": "0x1",
      "cumulativeGasUsed": "0xbcb399",
      "logs": [
        {
          "address": "0x4e6ae7306e418d241a5b608f9e3a68aa49acb3ac",
          "topics": [
            "0x47cee97cb7acd717b3c0aa1435d004cd5b3c8c57d70dbceb4e4458bbd60e39d4"
          ],
          "data": "0x0000000000000000000000009fdbbe3bb33882c4289189bc301017078430a9340000000000000000000000000000000000000000000000015af1d78b58c40000",
          "blockHash": "0x09436a9963f87740a54b8e5be01c36010f388cf7d8d39a30f54c47c426f57455",
          "blockNumber": "0x9e1ae1",
          "blockTimestamp": "0x69a43298",
          "transactionHash": "0xa821d169f5428557b603f965dd42bfe1daa7ef5c6dd88b67955e3fa1a8220be8",
          "transactionIndex": "0x5d",
          "logIndex": "0x133",
          "removed": false
        },
        {
          "address": "0x9a02a0105d22c46ab7976e27d1b5521cbc727302",
          "topics": [
            "0xddf252ad1be2c89b69c2b068fc378daa952ba7f163c4a11628f55a4df523b3ef",
            "0x0000000000000000000000004e6ae7306e418d241a5b608f9e3a68aa49acb3ac",
            "0x0000000000000000000000009fdbbe3bb33882c4289189bc301017078430a934"
          ],
          "data": "0x0000000000000000000000000000000000000000000000015af1d78b58c40000",
          "blockHash": "0x09436a9963f87740a54b8e5be01c36010f388cf7d8d39a30f54c47c426f57455",
          "blockNumber": "0x9e1ae1",
          "blockTimestamp": "0x69a43298",
          "transactionHash": "0xa821d169f5428557b603f965dd42bfe1daa7ef5c6dd88b67955e3fa1a8220be8",
          "transactionIndex": "0x5d",
          "logIndex": "0x134",
          "removed": false
        }
      ],
      "logsBloom": "0x00000000000000000000000080000000080000000000000000000000000000000000000000000000000000000000000000000010000000000100000000000000000000000000000008000008000000000000000800000000000000000000000000000000000000000000000000000000000000000000000000000010000080000000000020000100000000000000004000000000000000000000000000000000000000000000000000000000000000000000000000020000000000000000000000000002000000000000000000000000080000000000000000000000000000000000000010000000000000000000000100000000000000000000000008000000",
      "type": "0x2",
      "transactionHash": "0xa821d169f5428557b603f965dd42bfe1daa7ef5c6dd88b67955e3fa1a8220be8",
      "transactionIndex": "0x5d",
      "blockHash": "0x09436a9963f87740a54b8e5be01c36010f388cf7d8d39a30f54c47c426f57455",
      "blockNumber": "0x9e1ae1",
      "gasUsed": "0x15dc7",
      "effectiveGasPrice": "0x100fe2",
      "from": "0x9fdbbe3bb33882c4289189bc301017078430a934",
      "to": "0x4e6ae7306e418d241a5b608f9e3a68aa49acb3ac",
      "contractAddress": null
    }
  ],
  "libraries": [],
  "pending": [],
  "returns": {},
  "timestamp": 1772368537277,
  "chain": 11155111,
  "commit": "16f74e1"
}